{
  "_format": "hh-sol-artifact-1",
  "contractName": "TipTipTap",
  "sourceName": "contracts/TipTipTap.sol",
  "abi": [
    {
      "inputs": [
        {
          "internalType": "string",
          "name": "_challenge",
          "type": "string"
        },
        {
          "internalType": "string",
          "name": "_result",
          "type": "string"
        },
        {
          "internalType": "uint8",
          "name": "_minimal",
          "type": "uint8"
        }
      ],
      "stateMutability": "nonpayable",
      "type": "constructor"
    },
    {
      "anonymous": false,
      "inputs": [
        {
          "indexed": true,
          "internalType": "address",
          "name": "previousOwner",
          "type": "address"
        },
        {
          "indexed": true,
          "internalType": "address",
          "name": "newOwner",
          "type": "address"
        }
      ],
      "name": "OwnershipTransferred",
      "type": "event"
    },
    {
      "anonymous": false,
      "inputs": [
        {
          "indexed": false,
          "internalType": "address",
          "name": "account",
          "type": "address"
        }
      ],
      "name": "Paused",
      "type": "event"
    },
    {
      "anonymous": false,
      "inputs": [
        {
          "indexed": false,
          "internalType": "uint8",
          "name": "players",
          "type": "uint8"
        }
      ],
      "name": "Players",
      "type": "event"
    },
    {
      "anonymous": false,
      "inputs": [
        {
          "indexed": false,
          "internalType": "address",
          "name": "account",
          "type": "address"
        }
      ],
      "name": "Unpaused",
      "type": "event"
    },
    {
      "inputs": [],
      "name": "applyNow",
      "outputs": [],
      "stateMutability": "nonpayable",
      "type": "function"
    },
    {
      "inputs": [],
      "name": "getCard",
      "outputs": [
        {
          "internalType": "string",
          "name": "",
          "type": "string"
        }
      ],
      "stateMutability": "view",
      "type": "function"
    },
    {
      "inputs": [],
      "name": "minimalToPlay",
      "outputs": [
        {
          "internalType": "uint8",
          "name": "",
          "type": "uint8"
        }
      ],
      "stateMutability": "view",
      "type": "function"
    },
    {
      "inputs": [],
      "name": "owner",
      "outputs": [
        {
          "internalType": "address",
          "name": "",
          "type": "address"
        }
      ],
      "stateMutability": "view",
      "type": "function"
    },
    {
      "inputs": [],
      "name": "paused",
      "outputs": [
        {
          "internalType": "bool",
          "name": "",
          "type": "bool"
        }
      ],
      "stateMutability": "view",
      "type": "function"
    },
    {
      "inputs": [],
      "name": "play",
      "outputs": [
        {
          "internalType": "string",
          "name": "",
          "type": "string"
        }
      ],
      "stateMutability": "view",
      "type": "function"
    },
    {
      "inputs": [],
      "name": "players",
      "outputs": [
        {
          "internalType": "uint8",
          "name": "",
          "type": "uint8"
        }
      ],
      "stateMutability": "view",
      "type": "function"
    },
    {
      "inputs": [],
      "name": "renounceOwnership",
      "outputs": [],
      "stateMutability": "nonpayable",
      "type": "function"
    },
    {
      "inputs": [
        {
          "internalType": "string",
          "name": "pin",
          "type": "string"
        }
      ],
      "name": "setCard",
      "outputs": [],
      "stateMutability": "nonpayable",
      "type": "function"
    },
    {
      "inputs": [
        {
          "internalType": "string",
          "name": "_challenge",
          "type": "string"
        }
      ],
      "name": "setChallenge",
      "outputs": [],
      "stateMutability": "nonpayable",
      "type": "function"
    },
    {
      "inputs": [
        {
          "internalType": "uint8",
          "name": "minimal",
          "type": "uint8"
        }
      ],
      "name": "setMinimalToPlay",
      "outputs": [],
      "stateMutability": "nonpayable",
      "type": "function"
    },
    {
      "inputs": [
        {
          "internalType": "string",
          "name": "_result",
          "type": "string"
        }
      ],
      "name": "submit",
      "outputs": [],
      "stateMutability": "nonpayable",
      "type": "function"
    },
    {
      "inputs": [
        {
          "internalType": "address",
          "name": "newOwner",
          "type": "address"
        }
      ],
      "name": "transferOwnership",
      "outputs": [],
      "stateMutability": "nonpayable",
      "type": "function"
    }
  ],
  "bytecode": "0x60806040523480156200001157600080fd5b5060405162001dc838038062001dc88339818101604052810190620000379190620003e5565b620000576200004b6200011260201b60201c565b6200011a60201b60201c565b60008060146101000a81548160ff021916908315150217905550826001908051906020019062000089929190620002ac565b5080600260016101000a81548160ff021916908360ff16021790555060016005600084604051602001620000be9190620004dc565b60405160208183030381529060405280519060200120815260200190815260200160002060006101000a81548160ff02191690831515021790555062000109620001de60201b60201c565b5050506200074f565b600033905090565b60008060009054906101000a900473ffffffffffffffffffffffffffffffffffffffff169050816000806101000a81548173ffffffffffffffffffffffffffffffffffffffff021916908373ffffffffffffffffffffffffffffffffffffffff1602179055508173ffffffffffffffffffffffffffffffffffffffff168173ffffffffffffffffffffffffffffffffffffffff167f8be0079c531659141344cd1fd0a4f28419497f9722a3daafe3b4186f6b6457e060405160405180910390a35050565b620001ee6200029660201b60201c565b1562000231576040517f08c379a0000000000000000000000000000000000000000000000000000000008152600401620002289062000512565b60405180910390fd5b6001600060146101000a81548160ff0219169083151502179055507f62e78cea01bee320cd4e420270b5ea74000d11b0c9f74754ebdbfc544b05a2586200027d6200011260201b60201c565b6040516200028c9190620004f5565b60405180910390a1565b60008060149054906101000a900460ff16905090565b828054620002ba9062000631565b90600052602060002090601f016020900481019282620002de57600085556200032a565b82601f10620002f957805160ff19168380011785556200032a565b828001600101855582156200032a579182015b82811115620003295782518255916020019190600101906200030c565b5b5090506200033991906200033d565b5090565b5b80821115620003585760008160009055506001016200033e565b5090565b6000620003736200036d846200055d565b62000534565b9050828152602081018484840111156200038c57600080fd5b62000399848285620005fb565b509392505050565b600082601f830112620003b357600080fd5b8151620003c58482602086016200035c565b91505092915050565b600081519050620003df8162000735565b92915050565b600080600060608486031215620003fb57600080fd5b600084015167ffffffffffffffff8111156200041657600080fd5b6200042486828701620003a1565b935050602084015167ffffffffffffffff8111156200044257600080fd5b6200045086828701620003a1565b92505060406200046386828701620003ce565b9150509250925092565b6200047881620005ba565b82525050565b60006200048b8262000593565b620004978185620005af565b9350620004a9818560208601620005fb565b80840191505092915050565b6000620004c46010836200059e565b9150620004d1826200070c565b602082019050919050565b6000620004ea82846200047e565b915081905092915050565b60006020820190506200050c60008301846200046d565b92915050565b600060208201905081810360008301526200052d81620004b5565b9050919050565b60006200054062000553565b90506200054e828262000667565b919050565b6000604051905090565b600067ffffffffffffffff8211156200057b576200057a620006cc565b5b6200058682620006fb565b9050602081019050919050565b600081519050919050565b600082825260208201905092915050565b600081905092915050565b6000620005c782620005ce565b9050919050565b600073ffffffffffffffffffffffffffffffffffffffff82169050919050565b600060ff82169050919050565b60005b838110156200061b578082015181840152602081019050620005fe565b838111156200062b576000848401525b50505050565b600060028204905060018216806200064a57607f821691505b602082108114156200066157620006606200069d565b5b50919050565b6200067282620006fb565b810181811067ffffffffffffffff82111715620006945762000693620006cc565b5b80604052505050565b7f4e487b7100000000000000000000000000000000000000000000000000000000600052602260045260246000fd5b7f4e487b7100000000000000000000000000000000000000000000000000000000600052604160045260246000fd5b6000601f19601f8301169050919050565b7f5061757361626c653a2070617573656400000000000000000000000000000000600082015250565b6200074081620005ee565b81146200074c57600080fd5b50565b611669806200075f6000396000f3fe608060405234801561001057600080fd5b50600436106100cf5760003560e01c8063abda9e2d1161008c578063ccd9e2eb11610066578063ccd9e2eb146101c8578063d99a8dc3146101d2578063dc0b3564146101ee578063f2fde38b1461020c576100cf565b8063abda9e2d14610172578063c055040c14610190578063c3ab4897146101ac576100cf565b80635112f02c146100d45780635c975abb146100f2578063715018a6146101105780638da5cb5b1461011a57806393e84cd914610138578063941d5b9c14610156575b600080fd5b6100dc610228565b6040516100e991906111aa565b60405180910390f35b6100fa6102f7565b604051610107919061118f565b60405180910390f35b61011861030d565b005b610122610395565b60405161012f9190611174565b60405180910390f35b6101406103be565b60405161014d91906111aa565b60405180910390f35b610170600480360381019061016b9190610f8a565b610498565b005b61017a61052e565b604051610187919061128c565b60405180910390f35b6101aa60048036038101906101a59190610fcb565b610541565b005b6101c660048036038101906101c19190610f8a565b6105db565b005b6101d06106f2565b005b6101ec60048036038101906101e79190610f8a565b6108d1565b005b6101f6610a84565b604051610203919061128c565b60405180910390f35b61022660048036038101906102219190610f61565b610a97565b005b6060600660003373ffffffffffffffffffffffffffffffffffffffff1673ffffffffffffffffffffffffffffffffffffffff1681526020019081526020016000208054610274906113e8565b80601f01602080910402602001604051908101604052809291908181526020018280546102a0906113e8565b80156102ed5780601f106102c2576101008083540402835291602001916102ed565b820191906000526020600020905b8154815290600101906020018083116102d057829003601f168201915b5050505050905090565b60008060149054906101000a900460ff16905090565b610315610b8f565b73ffffffffffffffffffffffffffffffffffffffff16610333610395565b73ffffffffffffffffffffffffffffffffffffffff1614610389576040517f08c379a00000000000000000000000000000000000000000000000000000000081526004016103809061124c565b60405180910390fd5b6103936000610b97565b565b60008060009054906101000a900473ffffffffffffffffffffffffffffffffffffffff16905090565b60606103c86102f7565b15610408576040517f08c379a00000000000000000000000000000000000000000000000000000000081526004016103ff9061122c565b60405180910390fd5b60018054610415906113e8565b80601f0160208091040260200160405190810160405280929190818152602001828054610441906113e8565b801561048e5780601f106104635761010080835404028352916020019161048e565b820191906000526020600020905b81548152906001019060200180831161047157829003601f168201915b5050505050905090565b6104a0610b8f565b73ffffffffffffffffffffffffffffffffffffffff166104be610395565b73ffffffffffffffffffffffffffffffffffffffff1614610514576040517f08c379a000000000000000000000000000000000000000000000000000000000815260040161050b9061124c565b60405180910390fd5b806001908051906020019061052a929190610d9f565b5050565b600260019054906101000a900460ff1681565b610549610b8f565b73ffffffffffffffffffffffffffffffffffffffff16610567610395565b73ffffffffffffffffffffffffffffffffffffffff16146105bd576040517f08c379a00000000000000000000000000000000000000000000000000000000081526004016105b49061124c565b60405180910390fd5b80600260016101000a81548160ff021916908360ff16021790555050565b6105e3610b8f565b73ffffffffffffffffffffffffffffffffffffffff16610601610395565b73ffffffffffffffffffffffffffffffffffffffff1614610657576040517f08c379a000000000000000000000000000000000000000000000000000000000815260040161064e9061124c565b60405180910390fd5b8060036000806002811115610695577f4e487b7100000000000000000000000000000000000000000000000000000000600052602160045260246000fd5b60028111156106cd577f4e487b7100000000000000000000000000000000000000000000000000000000600052602160045260246000fd5b815260200190815260200160002090805190602001906106ee929190610d9f565b5050565b6106fa6102f7565b610739576040517f08c379a0000000000000000000000000000000000000000000000000000000008152600401610730906111cc565b60405180910390fd5b600460003373ffffffffffffffffffffffffffffffffffffffff1673ffffffffffffffffffffffffffffffffffffffff16815260200190815260200160002060009054906101000a900460ff16156107c6576040517f08c379a00000000000000000000000000000000000000000000000000000000081526004016107bd9061126c565b60405180910390fd5b6001600460003373ffffffffffffffffffffffffffffffffffffffff1673ffffffffffffffffffffffffffffffffffffffff16815260200190815260200160002060006101000a81548160ff0219169083151502179055506001600260009054906101000a900460ff1661083a9190611324565b600260006101000a81548160ff021916908360ff1602179055507f94c3abbc47530b8395236cf6fa14129b158cfe71898f8ce80d1a1487e1bc9102600260009054906101000a900460ff16604051610892919061128c565b60405180910390a1600260019054906101000a900460ff1660ff16600260009054906101000a900460ff1660ff1614156108cf576108ce610c5b565b5b565b6108d96102f7565b15610919576040517f08c379a00000000000000000000000000000000000000000000000000000000081526004016109109061122c565b60405180910390fd5b600560008260405160200161092e919061115d565b60405160208183030381529060405280519060200120815260200190815260200160002060009054906101000a900460ff1661099f576040517f08c379a00000000000000000000000000000000000000000000000000000000081526004016109969061120c565b60405180910390fd5b600360008060028111156109dc577f4e487b7100000000000000000000000000000000000000000000000000000000600052602160045260246000fd5b6002811115610a14577f4e487b7100000000000000000000000000000000000000000000000000000000600052602160045260246000fd5b8152602001908152602001600020600660003373ffffffffffffffffffffffffffffffffffffffff1673ffffffffffffffffffffffffffffffffffffffff168152602001908152602001600020908054610a6d906113e8565b610a78929190610e25565b50610a81610cfc565b50565b600260009054906101000a900460ff1681565b610a9f610b8f565b73ffffffffffffffffffffffffffffffffffffffff16610abd610395565b73ffffffffffffffffffffffffffffffffffffffff1614610b13576040517f08c379a0000000000000000000000000000000000000000000000000000000008152600401610b0a9061124c565b60405180910390fd5b600073ffffffffffffffffffffffffffffffffffffffff168173ffffffffffffffffffffffffffffffffffffffff161415610b83576040517f08c379a0000000000000000000000000000000000000000000000000000000008152600401610b7a906111ec565b60405180910390fd5b610b8c81610b97565b50565b600033905090565b60008060009054906101000a900473ffffffffffffffffffffffffffffffffffffffff169050816000806101000a81548173ffffffffffffffffffffffffffffffffffffffff021916908373ffffffffffffffffffffffffffffffffffffffff1602179055508173ffffffffffffffffffffffffffffffffffffffff168173ffffffffffffffffffffffffffffffffffffffff167f8be0079c531659141344cd1fd0a4f28419497f9722a3daafe3b4186f6b6457e060405160405180910390a35050565b610c636102f7565b610ca2576040517f08c379a0000000000000000000000000000000000000000000000000000000008152600401610c99906111cc565b60405180910390fd5b60008060146101000a81548160ff0219169083151502179055507f5db9ee0a495bf2e6ff9c91a7834c1ba4fdd244a5e8aa4e537bd38aeae4b073aa610ce5610b8f565b604051610cf29190611174565b60405180910390a1565b610d046102f7565b15610d44576040517f08c379a0000000000000000000000000000000000000000000000000000000008152600401610d3b9061122c565b60405180910390fd5b6001600060146101000a81548160ff0219169083151502179055507f62e78cea01bee320cd4e420270b5ea74000d11b0c9f74754ebdbfc544b05a258610d88610b8f565b604051610d959190611174565b60405180910390a1565b828054610dab906113e8565b90600052602060002090601f016020900481019282610dcd5760008555610e14565b82601f10610de657805160ff1916838001178555610e14565b82800160010185558215610e14579182015b82811115610e13578251825591602001919060010190610df8565b5b509050610e219190610eb2565b5090565b828054610e31906113e8565b90600052602060002090601f016020900481019282610e535760008555610ea1565b82601f10610e645780548555610ea1565b82800160010185558215610ea157600052602060002091601f016020900482015b82811115610ea0578254825591600101919060010190610e85565b5b509050610eae9190610eb2565b5090565b5b80821115610ecb576000816000905550600101610eb3565b5090565b6000610ee2610edd846112cc565b6112a7565b905082815260208101848484011115610efa57600080fd5b610f058482856113a6565b509392505050565b600081359050610f1c81611605565b92915050565b600082601f830112610f3357600080fd5b8135610f43848260208601610ecf565b91505092915050565b600081359050610f5b8161161c565b92915050565b600060208284031215610f7357600080fd5b6000610f8184828501610f0d565b91505092915050565b600060208284031215610f9c57600080fd5b600082013567ffffffffffffffff811115610fb657600080fd5b610fc284828501610f22565b91505092915050565b600060208284031215610fdd57600080fd5b6000610feb84828501610f4c565b91505092915050565b610ffd8161135b565b82525050565b61100c8161136d565b82525050565b600061101d826112fd565b6110278185611308565b93506110378185602086016113b5565b611040816114d8565b840191505092915050565b6000611056826112fd565b6110608185611319565b93506110708185602086016113b5565b80840191505092915050565b6000611089601483611308565b9150611094826114e9565b602082019050919050565b60006110ac602683611308565b91506110b782611512565b604082019050919050565b60006110cf600e83611308565b91506110da82611561565b602082019050919050565b60006110f2601083611308565b91506110fd8261158a565b602082019050919050565b6000611115602083611308565b9150611120826115b3565b602082019050919050565b6000611138600d83611308565b9150611143826115dc565b602082019050919050565b61115781611399565b82525050565b6000611169828461104b565b915081905092915050565b60006020820190506111896000830184610ff4565b92915050565b60006020820190506111a46000830184611003565b92915050565b600060208201905081810360008301526111c48184611012565b905092915050565b600060208201905081810360008301526111e58161107c565b9050919050565b600060208201905081810360008301526112058161109f565b9050919050565b60006020820190508181036000830152611225816110c2565b9050919050565b60006020820190508181036000830152611245816110e5565b9050919050565b6000602082019050818103600083015261126581611108565b9050919050565b600060208201905081810360008301526112858161112b565b9050919050565b60006020820190506112a1600083018461114e565b92915050565b60006112b16112c2565b90506112bd828261141a565b919050565b6000604051905090565b600067ffffffffffffffff8211156112e7576112e66114a9565b5b6112f0826114d8565b9050602081019050919050565b600081519050919050565b600082825260208201905092915050565b600081905092915050565b600061132f82611399565b915061133a83611399565b92508260ff038211156113505761134f61144b565b5b828201905092915050565b600061136682611379565b9050919050565b60008115159050919050565b600073ffffffffffffffffffffffffffffffffffffffff82169050919050565b600060ff82169050919050565b82818337600083830152505050565b60005b838110156113d35780820151818401526020810190506113b8565b838111156113e2576000848401525b50505050565b6000600282049050600182168061140057607f821691505b602082108114156114145761141361147a565b5b50919050565b611423826114d8565b810181811067ffffffffffffffff82111715611442576114416114a9565b5b80604052505050565b7f4e487b7100000000000000000000000000000000000000000000000000000000600052601160045260246000fd5b7f4e487b7100000000000000000000000000000000000000000000000000000000600052602260045260246000fd5b7f4e487b7100000000000000000000000000000000000000000000000000000000600052604160045260246000fd5b6000601f19601f8301169050919050565b7f5061757361626c653a206e6f7420706175736564000000000000000000000000600082015250565b7f4f776e61626c653a206e6577206f776e657220697320746865207a65726f206160008201527f6464726573730000000000000000000000000000000000000000000000000000602082015250565b7f596f75206e6f7420706173736564000000000000000000000000000000000000600082015250565b7f5061757361626c653a2070617573656400000000000000000000000000000000600082015250565b7f4f776e61626c653a2063616c6c6572206973206e6f7420746865206f776e6572600082015250565b7f596f7520776173206170706c7900000000000000000000000000000000000000600082015250565b61160e8161135b565b811461161957600080fd5b50565b61162581611399565b811461163057600080fd5b5056fea2646970667358221220a113cef11764f5e7e38fd3829aa98daed9b0b67491a9c121b89ac1163a0a3ff664736f6c63430008040033",
  "linkReferences": {},
  "deployedLinkReferences": {}
}